:100000000C9434000C943E000C943E000C943E0082
:100010000C943E000C943E000C943E000C943E0068
:100020000C943E000C943E000C943E000C943E0058
:100030000C943E000C943E000C943E000C943E0048
:100040000C943E000C943E000C943E000C943E0038
:100050000C943E000C943E000C943E000C943E0028
:100060000C943E000C943E0011241FBECFEFD8E04C
:10007000DEBFCDBF0E9440000C945E000C940000D7
:100080008FEF84B92FE73AE146E0215030404040FD
:10009000E1F700C0000080E090E021E001C09F5F38
:1000A00095B95FE73AE146E0515030404040E1F712
:1000B00000C000008227813099F7F1CFF894FFCF7C
:00000001FF
