S00E00004441325434432E7372656394
S11300000C9434000C9446000C9446000C94460066
S11300100C9446000C9446000C9446000C94460044
S11300200C9446000C9446000C9446000C946A0010
S11300300C9446000C9446000C9446000C94460024
S11300400C9446000C9446000C9446000C94460014
S11300500C9446000C9446000C9446000C94460004
S11300600C9446000C94460011241FBECFEFD8E038
S1130070DEBFCDBF21E0A0E0B1E001C01D92A430FD
S1130080B207E1F70E9448000C94B1000C94000000
S113009010920301109202011092010110920001CA
S11300A08FEF84B980E387B9E1E8F0E080818D6067
S11300B08083109285001092840082E49FE09093E4
S11300C0890080938800EFE6F0E08081826080837D
S11300D07894FFCF1F920F920FB60F9211248F9333
S11300E09F93809102019091030101968F3F9105A6
S11300F009F02CF4909303018093020104C0109240
S11301000301109202018091020185B980910001DE
S113011090910101019690930101809300018A302E
S1130120910569F01CF4059739F014C08F309105DE
S113013049F0449751F00EC080E288B90BC080E1C9
S113014088B908C080E388B905C018B810920101C5
S1130150109200019F918F910F900FBE0F901F90EE
S10901601895F894FFCF8E
S9030000FC
