S00C000044412D342E7372656332
S11300000C9434000C943E000C943E000C943E007E
S11300100C943E000C943E000C943E000C943E0064
S11300200C943E000C943E000C943E000C943E0054
S11300300C943E000C943E000C943E000C943E0044
S11300400C943E000C943E000C943E000C943E0034
S11300500C943E000C943E000C943E000C943E0024
S11300600C943E000C943E0011241FBECFEFD8E048
S1130070DEBFCDBF0E9440000C9493000C9400009E
S113008080E48AB98AE084B986EE87BD91EC94BD98
S113009043E045BDA8E8B0E026EE30E011963C937D
S11300A02E939093800040938100E3EBF0E08083F3
S11300B09093B00094E09093B10087BD11963C9367
S11300C02E93808336EE81EE40E091E026EEC0E090
S11300D056EE0BC0852F993040F04F5F29512E31D9
S11300E018F49C2F252F01C09C2F493038F035502F
S11300F03E3118F44C2F352F01C04C2F6FEF79EFA0
S1130100D0E061507040D040E1F700C0000087BDEE
S1130110622F70E011967C936E9330839F5F8550BD
S10D01208E31C0F2D8CFF894FFCF5F
S9030000FC
