S01700004763634170706C69636174696F6E312E737265635B
S11300000C9434000C943E000C943E000C943E007E
S11300100C943E000C943E000C943E000C943E0064
S11300200C943E000C943E000C943E000C943E0054
S11300300C943E000C943E000C943E000C943E0044
S11300400C943E000C943E000C943E000C943E0034
S11300500C943E000C943E000C943E000C943E0024
S11300600C943E000C943E0011241FBECFEFD8E048
S1130070DEBFCDBF0E9451000C9495000C9400008B
S113008022E330E080E090E0FC013197F1F7FC01DD
S11300903197F1F7FC013197F1F721503109A1F7BC
S11300A00895E0E8F0E0808182688083E1E8F0E090
S11300B080818B61808383EC99E0909387008093A7
S11300C08600219AC8E8D0E002E310E038010F2E40
S11300D0FEEAAF2EB12CF02D0F2EF2E6CF2ED12C4E
S11300E0F02D0F2EFFEDEF2EF12CF02D0F2EFCE254
S11300F08F2E99249394F02D798268820E94400077
S1130100B982A8820E944000D982C8820E9440001D
S1130110F982E8820E944000998288820E9440000D
S1110120198308830E944000E7CFF894FFCFB4
S9030000FC
