:100000000C9434000C943E000C943E000C943E0082
:100010000C943E000C943E000C943E000C943E0068
:100020000C943E000C943E000C943E000C943E0058
:100030000C943E000C943E000C943E000C943E0048
:100040000C943E000C943E000C943E000C943E0038
:100050000C943E000C943E000C943E000C943E0028
:100060000C943E000C943E0011241FBECFEFD8E04C
:10007000DEBFCDBF0E9451000C9478000C940000AC
:1000800022E330E080E090E0FC013197F1F7FC01E1
:100090003197F1F7FC013197F1F721503109A1F7C0
:1000A000089584B5836A84BD85B5836085BD569AFD
:1000B000559A0F2EF8E7EF2EF02D0F2EFAEAFF2EAD
:1000C000F02D04EE1EE6D6E9C8ECE8BC0E94400024
:1000D000F8BC0E94400008BD0E94400017BD0E946D
:1000E0004000D7BD0E944000C7BD0E944000EDCF38
:0400F000F894FFCFB2
:00000001FF
